:020000040000FA
:060000000A128A110C280F
:10000800FE00030EF0000A08F1000A128A116C299A
:100018000A128A110F28FA01FB0183010A128A11B8
:10002800B528003083120313A4000030A300003069
:10003800A2000030A1007508740473047204031947
:10004800262827287428A501A50A37280130A000EA
:100058000310F20DF30DF40DF50DA00B2C28013053
:10006800A0002008A507F51F3A283B282A280130B8
:10007800A0000310A10DA20DA30DA40DA00B3D28F7
:1000880075087902031D522874087802031D522846
:1000980073087702031D522872087602031C55283C
:1000A800562865287208F6027308031C730FF702B6
:1000B8007408031C740FF8027508031C750FF90205
:1000C800211401300310F50CF40CF30CF20CFF3E74
:1000D800031D66280130A502031D732874283B28D8
:1000E8002408F5002308F4002208F3002108F20090
:1000F8000800283083120313940083160313910118
:10010800831203132608AA002708AB002808AC00AE
:100118002908AD0002300310AA0DAB0DAC0DAD0DD2
:10012800FF3E031D8F282D08F5002C08F4002B082E
:10013800F3002A08F2000030F9007A30F800123093
:10014800F7000030F6000A128A1115200A128A11E7
:100158007208FF3E83160313930094018715071650
:1001680008000A128A111A210A128A110A128A111F
:1001780063210A128A117130F2000030F3000A126A
:100188008A1150210A128A110030F200F3000A1273
:100198008A11EC200A128A1172088312031388004C
:1001A8000A128A115A210A128A1103308312031380
:1001B800B0000830AF007630AE00AE0BE128AF0BD0
:1001C800E128B00BE1280000BA280A128A110C288D
:1001D8000A128A1143210A128A11831603139115F0
:1001E8000A128A1143210A128A118312031313086F
:1001F800F400F5017408F6007508F7000A128A1170
:1002080043210A128A1172037304031D0C290D2954
:1002180011298316031391121429831603139116B7
:1002280011167708F3007608F20008008316031702
:1002380088018901831603138501880189018601D4
:1002480083120313850186018701880189018316BA
:1002580003130F178F160F160F148B130B13003081
:1002680083120313A9000130A8008630A700A0302C
:10027800A6000A128A117D200A128A110800831624
:100288000313141948294929432911081F39031D43
:100298004E294F29432908000A128A1143210A12BC
:1002A8008A11720883120313930008000A128A1134
:1002B80043210A128A1183160313111508000A1222
:1002C8008A1143210A128A11831603131114080094
:1002D8008B138B1771088A00700E8300FE0E7E0E3A
:0202E80009000B
:04400E00C420FF3F8C
:00000001FF
