:020000040000FA
:060000000A128A110C280F
:10000800FE00030EF7000A08F8000A128A111528E4
:100018000A128A110F28F901FA0183010A128A11BA
:10002800D3288B13831203130C1F1B281C28282882
:100038000A128A116C210A128A117008F6007608D1
:10004800FA00831203130C138C1D2B282C287E28EE
:100058001412141B302831283528941F34283528C9
:100068003C281308F6007608F900141394131416A4
:1000780083160313941A412842285A28141945282C
:1000880046285A28831203131308F6007608F90045
:100098008C11141683160313141C532854284E2845
:1000A800A630F600F60B562800007B28941A5D2827
:1000B8005E287B28141D612862287B28831203137D
:1000C8001308F6007608F9008316031314107A084B
:1000D8008312031393001416A630F600F60B722849
:1000E80000008316031314187A287B2875288312B6
:1000F80003138C118B1778088A00770E8300FE0E85
:100108007E0E0900BD282408840022088000840A85
:10011800230880002008A500A50DA50D1F082506A9
:10012800C33925069F000F3083120313A500A50BC2
:100138009B289E28831203139F14D2282408840026
:1001480022088000840A230880002008A500A50D45
:10015800A50D1F082506C33925069F000F308312F9
:100168000313A500A50BB628B928831203139F14FF
:10017800D228831203131F0CA500250C0F39A600E3
:10018800A7012708003A0319CA28D2282608003AE6
:1001980003198728013A0319A228D22808000A124D
:1001A8008A1101210A128A11831203139F147A08F3
:1001B8008312031386000030A000A1007A08A8006B
:1001C800A9012808A2002908A3007A30AA002A0851
:1001D800A4000A128A1186200A128A111A30831280
:1001E8000313A900F730A800A80BF828A90BF828D2
:1001F800FD28DB280A128A110C2801308316031700
:10020800880089010130831603138500880189015C
:1002180086018312031385018601870188018901FC
:10022800831603130F178F160F160F14003083123F
:100238000313A000A1000A128A112D210A128A11A3
:100248008B170B1770300A128A1150210A128A1163
:100258000800831203131F142008A200A20DA20D88
:100268001F082206C33922069F0020308312031379
:10027800A200A20B3D290000831203131F083F3977
:1002880040389F00831603139F131F129F120C17E9
:10029800831203130C13080083120313A000200811
:1002A80083160313930036308312031394008030AF
:1002B80083160313940001309100871507168B17D6
:1002C8000B17831203138C11831603138C15080064
:1002D800831203131E08F200F3017208F400730876
:0C02E800F5007508F1007408F000080033
:04400E00C420FF3F8C
:00000001FF
