:020000040000FA
:060000000A128A110C280F
:10000800FE00030EF1000A08F2000A128A111728EE
:100018000A128A110F28F601F701F801F901830184
:100028000A128A11D0288B130B1C1B281C282E2877
:100038008312031306182128222827280130F000EC
:100048007008F8072D2886182A282B282D28013013
:10005800F8020B10831203138C1D332834288628CA
:100068001412141B382839283D28941F3C283D2891
:1000780044281308F0007008F90014139413141698
:1000880083160313941A49284A28622814194D28FC
:100098004E286228831203131308F0007008F90031
:1000A8008C11141683160313141C5B285C2856281D
:1000B800A630F000F00B5E2800008328941A65280B
:1000C80066288328141D69286A2883288312031345
:1000D8001308F0007008F900831603131410780849
:1000E8008312031393001416A630F000F00B7A283D
:1000F8000000831603131418822883287D2883128E
:1001080003138C118B1772088A00710E8300FE0E80
:100118007E0E0900831603178801890183160313CD
:100128008501880189010330860083120313850144
:100138008601870188018901831603130F178F161B
:100148000F160F14811315149514161496148B1783
:100158000B178B150B1080300A128A11B6200A1261
:100168008A110800F30073088316031393003630CE
:100178008312031394008030831603139400013014
:100188009100871507168B170B17831203138C1111
:10019800831603138C1508000A128A118E200A127E
:1001A8008A111A30F500F830F400F40BD928F50B51
:0C01B800D9280000D5280A128A110C2852
:04400E00C420FF3F8C
:00000001FF
